:03000000020A648D
:0C0A6400787FE4F6D8FD75811F020A2798
:100A500000C000F900A400B000990092008200F8E4
:040A60000080009082
:040981008E088F0944
:10098500780A7C007D007BFF7A0A79507E007F140F
:100995001208D0E4FBFAD3EB9509E5086480F8EA80
:1009A500648098507C7C007D0AAF03AE021208F685
:1009B500D2B0C2B1EF25E0240AF808E6F5A0E4FFBD
:1009C500FEE4F51EF51F051FE51F7002051EF44523
:1009D5001E70F30FBF00010EEF64644E70E37C00E0
:1009E5007D0AAF03AE021208F6C2B0D2B1AF05EF71
:1009F50025E0240AF808E6F5A0E4FEFFE4F51EF577
:100A05001F051FE51F7002051EF4451E70F30FBF7D
:100A150000010EEF64644E70E30BBB00010A02098E
:010A25009B35
:010A260022AD
:100A2700C292C291C290D2907F0F7E00120981C2FA
:100A370090D2917F057E00120981C291D2927F1ECA
:090A47007E00120981C29280D7E1
:10080000E709F608DFFA8046E709F208DFFA803EDA
:1008100088828C83E709F0A3DFFA8032E309F608C7
:10082000DFFA8078E309F208DFFA807088828C832F
:10083000E309F0A3DFFA806489828A83E0A3F608E3
:10084000DFFA805889828A83E0A3F208DFFA804CBD
:1008500080D280FA80C680D4806980F28033801094
:1008600080A680EA809A80A880DA80E280CA8033FD
:1008700089828A83ECFAE493A3C8C582C8CCC58375
:10088000CCF0A3C8C582C8CCC583CCDFE9DEE78045
:100890000D89828A83E493A3F608DFF9ECFAA9F0C4
:1008A000EDFB2289828A83ECFAE0A3C8C582C8CC1A
:1008B000C583CCF0A3C8C582C8CCC583CCDFEADE33
:1008C000E880DB89828A83E493A3F208DFF980CC95
:1008D00088F0EF60010E4E60C388F0ED2402B4048E
:1008E0000050B9F582EB2402B4040050AF23234535
:0608F00082239008507302
:1008F600C2D5EC30E709B2D5E4C39DFDE49CFCEE1D
:1009060030E715B2D5E4C39FFFE49EFE12092CC35F
:10091600E49DFDE49CFC800312092C30D507C3E45A
:060926009FFFE49EFE228B
:10092C00BC000BBE0029EF8DF084FFADF022E4CCAF
:10093C00F875F008EF2FFFEE33FEEC33FCEE9DEC78
:10094C00984005FCEE9DFE0FD5F0E9E4CEFD22EDBE
:10095C00F8F5F0EE8420D21CFEADF075F008EF2F08
:10096C00FFED33FD4007985006D5F0F222C398FDF9
:05097C000FD5F0EA2296
:00000001FF
